:1000000083168501860185140515863081008312CB
:100010009A0185114920851C11283020851C112842
:100020001728051D0B283020051D0B281E286330BE
:100030001A0203190B289A0A49200B280B301A02BE
:1000400003190B28031C0B2839209A034920031D90
:1000500024288515851C2A2885119A0130201B2803
:10006000CD01CE012E30CE00CD0B3428CE0B34285E
:100070000800CF011030CF00CF0B3F28412842208D
:100080003C28080081013D3081000B1D45280B11E3
:1000900008009C01AC011A089C000A301C02031CD9
:1000A0005428AC0A9C004D28AC0DAC0DAC0DAC0D29
:0800B0001C082C078600080063
:02400E00F13F80
:00000001FF
